:0200000460009A
:100000004643464200000156000000000103030081
:1000100000000000000000000000000000000000E0
:1000200000000000000000000000000000000000D0
:1000300000000000000000000000000000000000C0
:1000400000000000010408000000000000000000A3
:100050000000800000000000000000000000000020
:100060000000000000000000000000000000000090
:100070000000000000000000000000000000000080
:10008000EB04180A063204260000000000000000FD
:10009000050404240000000000000000000000002F
:1000A0000000000000000000000000000000000050
:1000B0000604000000000000000000000000000036
:1000C0000000000000000000000000000000000030
:1000D00020041808000000000000000000000000DC
:1000E0000000000000000000000000000000000010
:1000F0000000000000000000000000000000000000
:10010000D8041808000000000000000000000000F3
:100110000204180804200000000000000000000095
:1001200000000000000000000000000000000000CF
:10013000600400000000000000000000000000005B
:1001400000000000000000000000000000000000AF
:10015000000000000000000000000000000000009F
:10016000000000000000000000000000000000008F
:10017000000000000000000000000000000000007F
:10018000000000000000000000000000000000006F
:10019000000000000000000000000000000000005F
:1001A000000000000000000000000000000000004F
:1001B000000000000000000000000000000000003F
:1001C000000100000010000001000000000000001D
:1001D000000001000000000000000000000000001E
:1001E000000000000000000000000000000000000F
:1001F00000000000000000000000000000000000FF
:10020000FFFFFFFFFFFFFFFFFFFFFFFFFFFFFFFFFE
:10021000FFFFFFFFFFFFFFFFFFFFFFFFFFFFFFFFEE
:10100000D10020434D1600600000000000000000E9
:10101000201000600010006000FC03600000000071
:10102000000000600008040000000000FFFFFFFF58
:10103000FFFFFFFFFFFFFFFFFFFFFFFFFFFFFFFFC0
:10104000FFFFFFFFFFFFFFFFFFFFFFFFFFFFFFFFB0
:10105000FFFFFFFFFFFFFFFFFFFFFFFFFFFFFFFFA0
:10106000FFFFFFFFFFFFFFFFFFFFFFFFFFFFFFFF90
:10140000814205D051F8043B40F8043B8242F9D8B0
:10141000704700BF044A05494FF0000342F8043BFF
:101420009142FBD8704700BFC03E012000CF012091
:101430002DE98848BFF34F8F00BF00BF00BF00BF3A
:1014400000F000FA684B0822C3F8542100BF00BF27
:1014500000BF00BF00BF00BF00BF00BF00BF00BF94
:1014600000BF00BF00BF00BF00BF00BF5F4A6049B0
:101470006048FFF7C5FF604A60496148FFF7C0FF59
:10148000604CFFF7C7FF4FF470004FF0E0210023DE
:101490005D4AC1F8880D44F823200133B02BFAD1FE
:1014A0005A4B80215A4A03F8011B9342FBD14FF05B
:1014B000E0254D4E4FF08039DFF884B1DFF884A18C
:1014C0004FF0FF31C5F8084D0027C6F80491C6F863
:1014D00000B1C6F8F490C6F8F0A0D5F8243DDFF8C6
:1014E000688143F4E0234B4AC5F8243DD8F81C300A
:1014F00023F07F0343F04003C8F81C30D8F82430B1
:1015000023F07F0343F04003C8F824309166D1668E
:101510001167516700F09EF93F4B4049A363404B70
:10152000E36363236B610323AF612B613D4BC5F81C
:10153000203DD5F8FC3D43F08073C5F8FC3D3A4BA7
:101540001A6842F001021A605B680B6000F0CCFB85
:10155000C6F804913548C6F800B1C6F8F490C6F84C
:10156000F0A000F03DFDD8F86C10314B314A41F449
:101570004051C8F86C101F60C3F80871C3F81871A7
:10158000C3F82871C3F83871936BDB0708D442F6AF
:101590001563294951651365936B43F00103936308
:1015A000244A264C936843F00113936000F0DAF963
:1015B00000F01EF900F008FD00F0C4FB00F044F953
:1015C0002368132BFCD900F055FC2368B3F5967FF4
:1015D000FBD300F03DF900F039F900F005FD00F013
:1015E0000BFD30BFFDE700BF00800D4018980200E2
:1015F0000022006000000000C03E01201CBA026012
:1016000000000020003C012091EC010000E400E01B
:10161000A0E400E000C00A40B100020054CE012066
:10162000B500020000002020001000E00046C323A7
:101630000040084000400D400000C05658CE012038
:101640001B1018200C0D111300C00F40054B4FF458
:101650002A01054A05485A641864054A9963954663
:10166000FFF7E6FE00C00A40FFAFAAAA070020006D
:101670000000052043690A4A03EB011010B4037A05
:10168000084C02EB0313D3E901321460C2681A60FC
:1016900003690BB142691A605DF8044B704700BFE3
:1016A000482D002061F801004369027E03EB02121D
:1016B00092F808C08C451CD01A7AFF2A19D09142A2
:1016C00010B5044616D01A7EFF2A06D00121D3E9B0
:1016D000002312681A4201D1217610BD064B052263
:1016E000204603EB0C135B681A60FFF7C3FF2176FB
:1016F000F3E770470021EAE7482D002043690A4AD2
:1017000003EB011010B490F82830084C02EB0313DF
:10171000D3E901321460C26A1A60036B0BB1426BE9
:101720001A605DF8044B7047482D002061F80100F5
:101730004369427E03EB021292F828C08C451ED00A
:1017400093F82820FF2A1AD0914210B5044617D0EA
:1017500093F83820FF2A06D00121D3E9002312682C
:101760001A4201D1617610BD064B0522204603EBDB
:101770000C135B681A60FFF7C1FF6176F3E77047EF
:101780000021EAE7482D0020164942698B6B23F4BB
:101790007C0343F4802370B58B630446124DD2E979
:1017A00000130A681A4303690A60022200211A61C1
:1017B0000E4A19619A6401225A629D624FF43035D3
:1017C000DD624FF001159E6C1E6519629D651A6100
:1017D000017EFFF74FFF617E2046BDE87040FFF7B6
:1017E0008DBF00BF00C00F40B80B05053B3728195F
:1017F000104BA020104AD96E41F4403110B4D96684
:1018000040F23764D96E41F44071D96654649064F3
:10181000936C1B06FCD4094A40F23761A023516443
:101820009364936C13F08003FBD1054A13705DF849
:10183000044B704700C00F4000400C4000800C403B
:10184000B5CE0120704700BF704700BF704700BF92
:1018500000BF704710B44FF0E0230021102431483E
:10186000C3F8941DC3F89C4D1124C3F8A00D2E4855
:10187000C3F89C4D1224C3F8A00D2C48C3F89C4D0E
:101880002B4AC3F8A00D2B4C42F015022A48C3F88E
:101890009C4DC3F8A00D294C2948C3F89C4DC3F8B2
:1018A000A00D284CC3F89C2D2748284AC3F8A04D0A
:1018B000C3F89C0DC3F8A02D02F5A022244C0C32D5
:1018C0002448C3F89C4DC3F8A02D234AC3F89C0DAF
:1018D000224CC3F8A02D02F14062C3F89C4D204871
:1018E000C3F8A02D0C32C3F89C0DC3F8A02D00BF87
:1018F00000BF00BF00BF00BF0122C3F8942DBFF39B
:101900004F8FBFF36F8FC3F8501FBFF34F8FBFF3DD
:101910006F8FD3F8142D5DF8044B42F44032C3F8B6
:10192000142D70473F000010250008070900100023
:1019300000CF012013002000210002071400002026
:1019400025000813090000101600202027000B13A3
:1019500017000040180000602F000B0719000070EE
:101960001A000080F0B5B84B1822B84E0120B84FCD
:1019700083B0C3F85C62B749C3F86072B64DC3F870
:101980006462A6F53046B54CC3F86862C3F86C5281
:10199000C3F87052C3F87452C3F8785248F20C7509
:1019A000DA661A675A679A67DA67C3F88020C3F85D
:1019B0008420C3F88820C1F82C03A94AC1F8300359
:1019C000C1F83403C1F83803C1F83C03C1F850032F
:1019D000A169A44B0A40A448A4491343A44AA361A3
:1019E000D4F8843043F00C03C4F884304FF0FF3453
:1019F000036843F00203036003682B404FF4005573
:101A00001A439C4B026044608A689B4C13409B4A7B
:101A100043F000538360C36823F07803C360036A14
:101A2000134023430362036A1340954A2343954CB2
:101A300043628262C2620022D1F8B83023F03F03D1
:101A400043F00103C0F8B830D1F8BC308E4923F020
:101A50003F0343F00103C0F8BC3040F2056302616C
:101A600005660467C0F88030456644670224C0F804
:101A70008430036823F0020303608161834B84494F
:101A8000C46143F8042B8B42FBD1774A136843F0BF
:101A900001031360136813F00103FBD17A4802219C
:101AA00040F2F564906140F29940D16140F26641A4
:101AB000C2F8004242F20144C2F810127549C2F85D
:101AC0002002C2F8301240F235417348C2F8344265
:101AD000C2F84012714CC2F8500242F20120704923
:101AE000C2F854120121C2F86042C2F864025E4892
:101AF000C2F8A030C2F8A430C2F8B0104369DA07C7
:101B0000FCD5012300244FF4803257494361C0F8CB
:101B1000A040C0F8A420C0F8B0304B69DB07FCD56A
:101B2000012300244FF400304F4A4B61C1F8A0401C
:101B3000C1F8A400C1F8B0305369DF07FCD5012318
:101B40000024584848495361C2F8A040C2F8A40094
:101B5000C2F8B0304B69DE07FCD5D1F8003145F64C
:101B60000D5221209BB24861934265D100244FF46D
:101B7000802201233C48C1F8A040C1F8A420C1F84C
:101B8000B0304369DD07FCD501234FF40004002188
:101B9000354A4361C0F8A040C0F8A410C0F8B03086
:101BA0005369DC07FCD501234FF400044FF4803067
:101BB0002D495361C2F8A040C2F8A400C2F8B03069
:101BC0004B69D807FCD501234FF400044FF40030D3
:101BD000254A4B61C1F8A040C1F8A400C1F8B0305B
:101BE0005369D907FCD501234FF400042D481E4941
:101BF0005361C2F8A040C2F8A400C2F8B0304B69EB
:101C0000DA07FCD5D1F8003145F60D5221209BB200
:101C10004861934250D008254FF400042249002027
:101C2000224B234A009015705A1A0123214822445E
:101C300000F0CEF903B0F0BD1E4B0022C3E9002234
:101C4000C3E9022203B0F0BD00801F40F9B00100DB
:101C5000F910010000841F40F970010000C00F401E
:101C6000FFFCFF1F000300A000402A4000802A4024
:101C70001200FFFFFF37F7004000008000FFF07CFC
:101C8000FF000F8363000200F05AF05A00422A401E
:101C900000432A409F041830EB06180A3806180A39
:101CA00006320126040003000000007000000070EE
:101CB000B6CE012020CA01204FF400044FF4802248
:101CC00001230848C1F8A040C1F8A420C1F8B030F1
:101CD0004369DB07FCD5012310254FF08074436175
:101CE0009CE700BF00402A40F0B4154A40274FF45B
:101CF00080314FF480564FF400554FF4404443F286
:101D00004200136913F0020F0ED113F4005F0FD0DD
:101D100013F4805F0ED0002BF3DA13F4803F0BD165
:101D20005B060BD5F0BC7047946151619061E8E7A8
:101D30005561E6E75661E4E79161E2E75761E0E764
:101D400000800D403F4A03203F49F3EE095AD2F884
:101D500080304FF0000C9FED3D6A23F001039FEDB2
:101D60003C5A30B4C2F88030C2F89000D1F8E0108C
:101D7000384DCBB2384C39482B6007EE903A0B0DFA
:101D8000C1F30B21F8EEE77A06EE903A07EE101A4F
:101D9000334BB8EEC77A2160F8EEE66A314937EE88
:101DA000C66A37EEC55A76EEC76A77EEE57A26EE52
:101DB000266AC3ED006A25EE265AD2F8803067EE17
:101DC000A64AC0ED007AC6EE275A274885EE276A54
:101DD000C4EEA76A75EE875AFCEEE55A36EE076A3E
:101DE00015EE904ABCEEC66A43EA045376EE877A53
:101DF000C2F8803016EE103AD2F89041FCEEE77A45
:101E000001EA0341214317EE903AC2F89011C3F35F
:101E10000B03D2F890110B431449C2F89031D2F859
:101E2000803043F00203C2F88030114B80F840C08C
:101E3000C1F840314FF0E023012230BCC3F8082143
:101E4000704700BF00810D4000441F400000AA42BF
:101E50000000B44278CD012074CD01207CCD01205A
:101E600088CD01200000FF0F00E400E0003C0120CD
:101E700079EE0100314B40F6617210B5C3F82021B4
:101E800040F2044400F0A8F82D4A2E49D2F88030E0
:101E90002D4843F00303C2F880302C4BC1F8604159
:101EA00002681A4203D1D1F8A8319A071BD0254AFB
:101EB0004FF00041244B5963D2F8403143F0020304
:101EC000C2F84031D2F840319B07FBD44FF40030C8
:101ED0004FF0E0211C4B4FF00042C1F88C0219205A
:101EE0009A6300F085F8184A4FF08040154C0021A5
:101EF00090630A20164B11604FF42072C4F8A801B9
:101F0000184600F05DF84FF4800203464FF481005C
:101F100040F243111860C4F858311A640D4B0E4A50
:101F2000C4F84811C3F804224FF0E0224FF4003106
:101F30000123C2F80C11C4F8403110BD00800D40DF
:101F400000C00F4000002E4000900D40001C1E00FD
:101F500000000020003C012061F0010008B50E4B9C
:101F60001B6E9B0700D4FBBE72B60C4B00200C4AC4
:101F7000C3F8400103F160430A49A3F55F231164EC
:101F80009D46BFF34F8F4FF400130748074ADB69A4
:101F900002609B68984700BF00441F4000002E402D
:101FA00000C00A400300200000802020000012EB47
:101FB000F8B500BFF8BC08BC9E46704700000000A2
:101FC0005FF800F0F92802005FF800F09DEB0100D7
:101FD0005FF800F0450102005FF800F0D1F7010062
:101FE0005FF800F0B9D801005FF800F0F9340200A2
:101FF0005FF800F0A9DB01005FF800F0ADE201003E
:08200000690400005D9400007A
:1020080080C00F400000000319000000100000000D
:10201800E8841F4001000000FF000000FF000000EE
:102028000000000000000000180000001000000080
:10203800E4841F4001000000FF000000FF000000D2
:1020480000000000000000001F0000008DA7000035
:1020580070C00F40000C00001100000011000000CB
:10206800E0841F40020000002C0000001200000065
:10207800E0841F4001000000100000001100000073
:10208800DC841F40020000002D0000001200000048
:10209800DC841F40010000001E00000081A7000032
:1020A80070C00F40C00000001200000013000000C4
:1020B800D0841F4001000000FF000000FF00000066
:1020C80000000000000000001300000013000000E2
:1020D800CC841F4001000000FF000000FF0000004A
:1020E80000000000000000001C00000075A70000B0
:1020F800160355005300420020005300650072008B
:10210800690061006C000000180354006500650058
:102118006E00730079006400750069006E006F003E
:102128000403090409026200030100C032080B001D
:102138000202020100090400000102020100052454
:1021480000100105240101010424020605240600EB
:10215800010705820310001009040100020A0000AB
:10216800000705030240000007058402400000093B
:1021780004020002FF6AFF00070581024000010710
:10218800050102400001000009026200030100C0CD
:1021980032080B00020202010009040000010202D9
:1021A8000100052400100105240101010424020690
:1021B8000524060001070582031000050904010033
:1021C800020A000000070503020002000705840256
:1021D8000002000904020002FF6AC7000705810225
:1021E8000002010705010200020100000A060002C0
:0821F800EF02014001000000AC
:1022000000000000000000000000000000000000CE
:1022100000000000000000000000000000000000BE
:102220000A49D1E900231344824298BF984234BF3F
:102230000123002308D28B68801AB0FBF3F203FB62
:102240001200B0FA80F35B0918467047CC370120C2
:102250000346024A00201A60704700BF3C3201204A
:102260000120704770B5054608460E46FFF7D8FFB7
:1022700038B34FF400121C4B2946D0691A68006924
:102280009B68B21A04690020A047184BB0FA80F48A
:1022900005461B686409022B01DC204670BD41F233
:1022A0009B621349134B032006F0AEFC124B134AFA
:1022B00031461348002D08BF1A4606F0EBFC2046B5
:1022C00070BD0A4B04461B68002BE6DD094B41F24A
:1022D00093620749012006F097FC3146094806F051
:1022E000D9FC204670BD00BFCC370120D836012074
:1022F0008C5C0020282600206454002068540020B4
:10230000905400207054002001231A46013B002AFB
:10231000FBD17047064908B5D1F8E0309A0705D4DB
:10232000FFF7F2FFD1F8E0309B07F9D508BD00BFF9
:1023300000802A402DE9F04F2DED028BADF5077D91
:10234000044600AF07F11803F9607A607B6172B64A
:1023500007F11400FFF77CFF002847D16F4E7A6821
:10236000F368B2FBF3F503FB1525002D4CD1336860
:10237000A34200F2A780FB687A689A189342BA6079
:1023800080F0BA801D461FE03368FA68A4EB0309A9
:1023900093424BD94FF4001341464A46D8692B4625
:1023A0000069D0F808800020C047F368B0FA80FACE
:1023B0001D444FEA5A1A1C44BB68AB4294BF002329
:1023C0000AF00103002B61D02046FFF729FFD7F860
:1023D00014800028D8D021464046FFF743FF8246AC
:1023E0000028D1D14E4B1B68022B7CDC4FF0000A39
:1023F0004C4B1B7803B962B6504607F50777BD46CC
:10240000BDEC028BBDE8F08F454B1B68002BEDDD6A
:10241000454B41F2B86245498246012006F0F4FB83
:10242000F2687968424806F035FCE1E76B46F068EF
:1024300008EE103A20F00303800803F1070323F0AD
:102440000703ADEB030D6B4607EE903A0ED005EB9C
:102450008000A5F1040BA3F1040A0438FFF75AFF2A
:102460005BF8043F58454AF8043FF7D14FF4001099
:1024700017EE903A41464A46C0690069D0F8088094
:102480000020C04718EE103A9D468EE7244B804648
:102490001B68022BACDD244B41F2E262234903208E
:1024A00006F0B2FBB8F1000F224A234B12BF4FF0E7
:1024B000000A4FF0010A1346224679681F4806F0C9
:1024C000E9FB95E7164B1B68002B8FDD164B41F29D
:1024D000BC620120154906F097FB21461848AA4620
:1024E00006F0D8FB84E7104B41F2E2620F4903206B
:1024F00006F08AFB104BDFE7094B1B68022B02DC5E
:102500004FF0010A74E7084B41F2E26207490320E9
:1025100006F07AFB4FF0010A064BCDE7CC370120DD
:10252000D8360120CBCE0120342600208C5C002040
:10253000B45400206454002068540020F05400205B
:10254000D0540020B2B12DE9F041074688461D461F
:102550001646002408EB040138192C442A46FFF7DC
:10256000E9FEA642F6D84FF0E023054AC3F80C2D49
:10257000BDE8F0814FF0E023014AC3F80C2D70470D
:102580000400FA05F8B54FF084439D695A69154077
:102590000DD0254F01269D6195FAA5F4B4FA84F477
:1025A00057F8243006FA04F49847A543F4D11F4B9A
:1025B0009D695A6915400DD01D4F01269D6195FA00
:1025C000A5F4B4FA84F457F8243006FA04F49847D2
:1025D000A543F4D1174B9D695A6915400DD0164F8C
:1025E00001269D6195FAA5F4B4FA84F457F82430D5
:1025F00006FA04F49847A543F4D1104B9D695A6933
:1026000015400DD00E4F01269D6195FAA5F4B4FA40
:1026100084F457F8243006FA04F49847A543F4D11B
:10262000BFF34F8FF8BD00BF54340120004000427B
:10263000D4340120008000425435012000C0004203
:10264000D43501200548064B1B1AD90F01EBA30115
:10265000491002D0034B03B118477047C03E012018
:10266000C03E01200000000008B5054B1BB1054924
:102670000548AFF30080BDE80840FFF7E3BF00BFA7
:1026800000000000C0CC012000080460704700BFBB
:10269000704700BF704700BF00207047034B1868A9
:1026A00010B103681B681847704700BFCCC40120F5
:1026B0002DE9F04100F5804090B0574C9646574BBD
:1026C0000094C0F860121B6A5548C3F301230468E4
:1026D000403304F080746B4413F8406C514B03FB9F
:1026E00006F60368B6FBF1F2B6FBF2F543F0A04341
:1026F0004D1B03600368DF01FCD5052A4FF0000C79
:102700002AD96046831C0130B2FBF3F7192F07FB6F
:1027100003F3F7D84FF00108B6FBF3F3CB1A002B05
:10272000B8BF5B42AB420BDBA7F10C0318BF4FF005
:102730000008062B0AD8B8F1000F07D08446E1E75D
:102740001D46A7F10C038446062BF4D9052FD9D8D2
:102750000CF10103B2FBF3F2B5F5967FA2F105028D
:102760004CDC142A4AD802EB42022F4F6E46DFF8A7
:10277000B08002F14003BEF1020F0DEB03050FCF55
:102780000FC60FCF0FC60FCF0FC697E80F0007C6B3
:1027900026F8023B4FEA1343337015F83F3C15F817
:1027A0003E2C4FEAC34315F8401C4FEA024203F4A3
:1027B000601301F0070102F4E02243EA020343EA56
:1027C000010343F4800343EA0C6343F48043C8F8F5
:1027D0000430D8F8043014BF23F0080343F0080392
:1027E000C8F804303CB90E4A136823F080531360D4
:1027F0001368DB01FCD410B0BDE8F081002CFAD1E5
:10280000074A136823F0805313601368D901FCD47E
:1028100010B0BDE8F08100BF3C18500000C00F4070
:1028200000801D4040420F004806002000207047F5
:1028300000207047082070470346104A102110B549
:1028400090B0DC78029407A89C7801945C7800949E
:1028500005AC1B7811F078FF002307A920460F93E1
:10286000CDE90B33CDE90D3314F0FAFD0BAA94E852
:10287000030015F033FF0B9810B010BD08210020A5
:1028800010490B68486B0A68496B02F07F02C1F37C
:10289000036101320431B2EB410F10D303F07F0327
:1028A000C0F30360053B0130A3EB4003DBB2054AF4
:1028B000106800F07F000130C01AC0B270470023DA
:1028C000F5E700BF00801D4030B585B086460DF1AC
:1028D000040C8CE80E0090F86E5090F86F402B19A5
:1028E0000A2B01D90B3B9BB2DAB263460B2C02EBED
:1028F000820203CB0EEB420C1B884EF81200CCF880
:102900000410ACF8083004D001348EF86F4005B0E4
:1029100030BD0135EDB20B2D03D08EF86E5005B0F1
:1029200030BD00238EF86E3005B030BD90F86F30AA
:1029300093B1934210D390F86E301A440A2A88BF9C
:102940000B3A02EB820200EB420350F812005A6885
:1029500008604A601B890B81704700BF69B170B580
:10296000054608460C4622F04BFF2B6802462146DE
:1029700028465B68BDE8704018477047F8B50646C2
:1029800000F1160500F12207EC1E14F8011F0123C7
:10299000002230460AF0A0F9AC42F6D1E51CBD4257
:1029A000F2D13046F8BD00BF2DE9F041144C94F847
:1029B0009850C5F19605002D01DCBDE8F08194F832
:1029C0009560002794F8961026440E48013196F839
:1029D00001802144777022F031FE042D86F80180B9
:1029E000EBDD94F8915094F892102544064801319B
:1029F0006E7821446F7022F021FE6E70BDE8F08188
:102A0000D8CB012040C201204CC2012008B5074BA1
:102A10001B7803B908BD582105481FF03DFB054B45
:102A200005481978BDE808401CF038BDCDCE01201E
:102A300030160020D8CB01203824012038B50446B8
:102A400049B108460D4622F0DBFE236802462946BE
:102A50005B68204698472046BDE838401CF02ABDF8
:102A6000244B1A68D2E90010D3680968006810B4D2
:102A70001842946801EA040134D0137C03F0030384
:102A800009BB43F008039908013B11740D2B0ED8C4
:102A9000DFE803F0100722070D1C10101C0D0722A1
:102AA00007105169137E01390133516113765DF8C6
:102AB000044B7047137E51690133013113765DF881
:102AC000044B5161704743F00403DAE753695DF842
:102AD000044BC83B5361704753695DF8044BC833DE
:102AE00053617047137C03F003030029CBD043F0FC
:102AF0000403C8E700C50120244B5A6AD2E900103C
:102B0000D3680968006810B41842946801EA0401A7
:102B100034D0137C03F0030309BB43F00803990886
:102B2000013B11740D2B0ED8DFE803F010072207CC
:102B30000D1C10101C0D072207105169137E01395E
:102B40000133516113765DF8044B7047137E516970
:102B50000133013113765DF8044B5161704743F046
:102B60000403DAE753695DF8044BC83B53617047CF
:102B700053695DF8044BC83353617047137C03F00D
:102B800003030029CBD043F00403C8E700C50120AC
:102B9000244BDA69D2E90010D3680968006810B4E0
:102BA0001842946801EA040134D0137C03F0030353
:102BB00009BB43F008039908013B11740D2B0ED893
:102BC000DFE803F0100722070D1C10101C0D072270
:102BD00007105169137E01390133516113765DF895
:102BE000044B7047137E51690133013113765DF850
:102BF000044B5161704743F00403DAE753695DF811
:102C0000044BC83B5361704753695DF8044BC833AC
:102C100053617047137C03F003030029CBD043F0CA
:102C20000403C8E700C50120244B1A6AD2E900104A
:102C3000D3680968006810B41842946801EA040176
:102C400034D0137C03F0030309BB43F00803990855
:102C5000013B11740D2B0ED8DFE803F0100722079B
:102C60000D1C10101C0D072207105169137E01392D
:102C70000133516113765DF8044B7047137E51693F
:102C80000133013113765DF8044B5161704743F015
:102C90000403DAE753695DF8044BC83B536170479E
:102CA00053695DF8044BC83353617047137C03F0DC
:102CB00003030029CBD043F00403C8E700C501207B
:102CC000244BDA68D2E90010D3680968006810B4B0
:102CD0001842946801EA040134D0137C03F0030322
:102CE00009BB43F008039908013B11740D2B0ED862
:102CF000DFE803F0100722070D1C10101C0D07223F
:102D000007105169137E01390133516113765DF863
:102D1000044B7047137E51690133013113765DF81E
:102D2000044B5161704743F00403DAE753695DF8DF
:102D3000044BC83B5361704753695DF8044BC8337B
:102D400053617047137C03F003030029CBD043F099
:102D50000403C8E700C50120244B1A69D2E900101A
:102D6000D3680968006810B41842946801EA040145
:102D700034D0137C03F0030309BB43F00803990824
:102D8000013B11740D2B0ED8DFE803F0100722076A
:102D90000D1C10101C0D072207105169137E0139FC
:102DA0000133516113765DF8044B7047137E51690E
:102DB0000133013113765DF8044B5161704743F0E4
:102DC0000403DAE753695DF8044BC83B536170476D
:102DD00053695DF8044BC83353617047137C03F0AB
:102DE00003030029CBD043F00403C8E700C501204A
:102DF000244B5A69D2E90010D3680968006810B4FE
:102E00001842946801EA040134D0137C03F00303F0
:102E100009BB43F008039908013B11740D2B0ED830
:102E2000DFE803F0100722070D1C10101C0D07220D
:102E300007105169137E01390133516113765DF832
:102E4000044B7047137E51690133013113765DF8ED
:102E5000044B5161704743F00403DAE753695DF8AE
:102E6000044BC83B5361704753695DF8044BC8334A
:102E700053617047137C03F003030029CBD043F068
:102E80000403C8E700C50120244B9A69D2E9001069
:102E9000D3680968006810B41842946801EA040114
:102EA00034D0137C03F0030309BB43F008039908F3
:102EB000013B11740D2B0ED8DFE803F01007220739
:102EC0000D1C10101C0D072207105169137E0139CB
:102ED0000133516113765DF8044B7047137E5169DD
:102EE0000133013113765DF8044B5161704743F0B3
:102EF0000403DAE753695DF8044BC83B536170473C
:102F000053695DF8044BC83353617047137C03F079
:102F100003030029CBD043F00403C8E700C5012018
:102F2000244BDA6AD2E90010D3680968006810B44B
:102F30001842946801EA040134D0137C03F00303BF
:102F400009BB43F008039908013B11740D2B0ED8FF
:102F5000DFE803F0100722070D1C10101C0D0722DC
:102F600007105169137E01390133516113765DF801
:102F7000044B7047137E51690133013113765DF8BC
:102F8000044B5161704743F00403DAE753695DF87D
:102F9000044BC83B5361704753695DF8044BC83319
:102FA00053617047137C03F003030029CBD043F037
:102FB0000403C8E700C50120254BD3F8CC20D2E993
:102FC0000010D3680968006810B41842946801EAD8
:102FD000040134D0137C03F0030309BB43F008035E
:102FE0009908013B11740D2B0ED8DFE803F0100790
:102FF00022070D1C10101C0D072207105169137EAB
:1030000001390133516113765DF8044B7047137E2B
:1030100051690133013113765DF8044B51617047FA
:1030200043F00403DAE753695DF8044BC83B53618E
:10303000704753695DF8044BC83353617047137C84
:1030400003F003030029CBD043F00403C8E700BF1B
:1030500000C50120254BD3F8A820D2E90010D36881
:103060000968006810B41842946801EA040134D079
:10307000137C03F0030309BB43F008039908013BE9
:1030800011740D2B0ED8DFE803F0100722070D1C7A
:1030900010101C0D072207105169137E01390133EE
:1030A000516113765DF8044B7047137E516901330B
:1030B000013113765DF8044B5161704743F004030E
:1030C000DAE753695DF8044BC83B536170475369B5
:1030D0005DF8044BC83353617047137C03F003035E
:1030E0000029CBD043F00403C8E700BF00C501208E
:1030F000244B5A68D2E90010D3680968006810B4FC
:103100001842946801EA040134D0137C03F00303ED
:1031100009BB43F008039908013B11740D2B0ED82D
:10312000DFE803F0100722070D1C10101C0D07220A
:1031300007105169137E01390133516113765DF82F
:10314000044B7047137E51690133013113765DF8EA
:10315000044B5161704743F00403DAE753695DF8AB
:10316000044BC83B5361704753695DF8044BC83347
:1031700053617047137C03F003030029CBD043F065
:103180000403C8E700C50120244B1A6BD2E90010E4
:10319000D3680968006810B41842946801EA040111
:1031A00034D0137C03F0030309BB43F008039908F0
:1031B000013B11740D2B0ED8DFE803F01007220736
:1031C0000D1C10101C0D072207105169137E0139C8
:1031D0000133516113765DF8044B7047137E5169DA
:1031E0000133013113765DF8044B5161704743F0B0
:1031F0000403DAE753695DF8044BC83B5361704739
:1032000053695DF8044BC83353617047137C03F076
:1032100003030029CBD043F00403C8E700C5012015
:10322000244B5A6BD2E90010D3680968006810B4C7
:103230001842946801EA040134D0137C03F00303BC
:1032400009BB43F008039908013B11740D2B0ED8FC
:10325000DFE803F0100722070D1C10101C0D0722D9
:1032600007105169137E01390133516113765DF8FE
:10327000044B7047137E51690133013113765DF8B9
:10328000044B5161704743F00403DAE753695DF87A
:10329000044BC83B5361704753695DF8044BC83316
:1032A00053617047137C03F003030029CBD043F034
:1032B0000403C8E700C50120244B9A6BD2E9001033
:1032C000D3680968006810B41842946801EA0401E0
:1032D00034D0137C03F0030309BB43F008039908BF
:1032E000013B11740D2B0ED8DFE803F01007220705
:1032F0000D1C10101C0D072207105169137E013997
:103300000133516113765DF8044B7047137E5169A8
:103310000133013113765DF8044B5161704743F07E
:103320000403DAE753695DF8044BC83B5361704707
:1033300053695DF8044BC83353617047137C03F045
:1033400003030029CBD043F00403C8E700C50120E4
:10335000244BDA6BD2E90010D3680968006810B416
:103360001842946801EA040134D0137C03F003038B
:1033700009BB43F008039908013B11740D2B0ED8CB
:10338000DFE803F0100722070D1C10101C0D0722A8
:1033900007105169137E01390133516113765DF8CD
:1033A000044B7047137E51690133013113765DF888
:1033B000044B5161704743F00403DAE753695DF849
:1033C000044BC83B5361704753695DF8044BC833E5
:1033D00053617047137C03F003030029CBD043F003
:1033E0000403C8E700C50120254BD3F8A420D2E987
:1033F0000010D3680968006810B41842946801EAA4
:10340000040134D0137C03F0030309BB43F0080329
:103410009908013B11740D2B0ED8DFE803F010075B
:1034200022070D1C10101C0D072207105169137E76
:1034300001390133516113765DF8044B7047137EF7
:1034400051690133013113765DF8044B51617047C6
:1034500043F00403DAE753695DF8044BC83B53615A
:10346000704753695DF8044BC83353617047137C50
:1034700003F003030029CBD043F00403C8E700BFE7
:1034800000C50120244B1A6CD2E90010D3680968EA
:10349000006810B41842946801EA040134D0137C27
:1034A00003F0030309BB43F008039908013B1174BF
:1034B0000D2B0ED8DFE803F0100722070D1C1010AB
:1034C0001C0D072207105169137E01390133516128
:1034D00013765DF8044B7047137E51690133013157
:1034E00013765DF8044B5161704743F00403DAE74B
:1034F00053695DF8044BC83B5361704753695DF8ED
:10350000044BC83353617047137C03F00303002955
:10351000CBD043F00403C8E700C50120254BD3F806
:103520009020D2E90010D3680968006810B41842EE
:10353000946801EA040134D0137C03F0030309BB4F
:1035400043F008039908013B11740D2B0ED8DFE8F6
:1035500003F0100722070D1C10101C0D0722071086
:103560005169137E01390133516113765DF8044BC3
:103570007047137E51690133013113765DF8044BB6
:103580005161704743F00403DAE753695DF8044B77
:10359000C83B5361704753695DF8044BC8335361AE
:1035A0007047137C03F003030029CBD043F00403DE
:1035B000C8E700BF00C50120244B5A6CD2E90010B7
:1035C000D3680968006810B41842946801EA0401DD
:1035D00034D0137C03F0030309BB43F008039908BC
:1035E000013B11740D2B0ED8DFE803F01007220702
:1035F0000D1C10101C0D072207105169137E013994
:103600000133516113765DF8044B7047137E5169A5
:103610000133013113765DF8044B5161704743F07B
:103620000403DAE753695DF8044BC83B5361704704
:1036300053695DF8044BC83353617047137C03F042
:1036400003030029CBD043F00403C8E700C50120E1
:10365000244B1A6FD2E90010D3680968006810B4CF
:103660001842946801EA040134D0137C03F0030388
:1036700009BB43F008039908013B11740D2B0ED8C8
:10368000DFE803F0100722070D1C10101C0D0722A5
:1036900007105169137E01390133516113765DF8CA
:1036A000044B7047137E51690133013113765DF885
:1036B000044B5161704743F00403DAE753695DF846
:1036C000044BC83B5361704753695DF8044BC833E2
:1036D00053617047137C03F003030029CBD043F000
:1036E0000403C8E700C50120244B9A6CD2E90010FE
:1036F000D3680968006810B41842946801EA0401AC
:1037000034D0137C03F0030309BB43F0080399088A
:10371000013B11740D2B0ED8DFE803F010072207D0
:103720000D1C10101C0D072207105169137E013962
:103730000133516113765DF8044B7047137E516974
:103740000133013113765DF8044B5161704743F04A
:103750000403DAE753695DF8044BC83B53617047D3
:1037600053695DF8044BC83353617047137C03F011
:1037700003030029CBD043F00403C8E700C50120B0
:10378000254BD3F88020D2E90010D368096800687F
:1037900010B41842946801EA040134D0137C03F099
:1037A000030309BB43F008039908013B11740D2B77
:1037B0000ED8DFE803F0100722070D1C10101C0DB7
:1037C000072207105169137E0139013351611376C5
:1037D0005DF8044B7047137E516901330131137654
:1037E0005DF8044B5161704743F00403DAE7536915
:1037F0005DF8044BC83B5361704753695DF8044B57
:10380000C83353617047137C03F003030029CBD006
:1038100043F00403C8E700BF00C50120244BDA6C65
:10382000D2E90010D3680968006810B4184294689F
:1038300001EA040134D0137C03F0030309BB43F015
:1038400008039908013B11740D2B0ED8DFE803F033
:10385000100722070D1C10101C0D072207105169BC
:10386000137E01390133516113765DF8044B7047C3
:10387000137E51690133013113765DF8044B5161B8
:10388000704743F00403DAE753695DF8044BC83B23
:103890005361704753695DF8044BC83353617047F7
:1038A000137C03F003030029CBD043F00403C8E7E3
:1038B00000C50120254BD3F8B020D2E90010D36811
:1038C0000968006810B41842946801EA040134D011
:1038D000137C03F0030309BB43F008039908013B81
:1038E00011740D2B0ED8DFE803F0100722070D1C12
:1038F00010101C0D072207105169137E0139013386
:10390000516113765DF8044B7047137E51690133A2
:10391000013113765DF8044B5161704743F00403A5
:10392000DAE753695DF8044BC83B5361704753694C
:103930005DF8044BC83353617047137C03F00303F5
:103940000029CBD043F00403C8E700BF00C5012025
:10395000244B1A6DD2E90010D3680968006810B4CE
:103960001842946801EA040134D0137C03F0030385
:1039700009BB43F008039908013B11740D2B0ED8C5
:10398000DFE803F0100722070D1C10101C0D0722A2
:1039900007105169137E01390133516113765DF8C7
:1039A000044B7047137E51690133013113765DF882
:1039B000044B5161704743F00403DAE753695DF843
:1039C000044BC83B5361704753695DF8044BC833DF
:1039D00053617047137C03F003030029CBD043F0FD
:1039E0000403C8E700C50120254BD3F8A020D2E985
:1039F0000010D3680968006810B41842946801EA9E
:103A0000040134D0137C03F0030309BB43F0080323
:103A10009908013B11740D2B0ED8DFE803F0100755
:103A200022070D1C10101C0D072207105169137E70
:103A300001390133516113765DF8044B7047137EF1
:103A400051690133013113765DF8044B51617047C0
:103A500043F00403DAE753695DF8044BC83B536154
:103A6000704753695DF8044BC83353617047137C4A
:103A700003F003030029CBD043F00403C8E700BFE1
:103A800000C50120244B5A6DD2E90010D3680968A3
:103A9000006810B41842946801EA040134D0137C21
:103AA00003F0030309BB43F008039908013B1174B9
:103AB0000D2B0ED8DFE803F0100722070D1C1010A5
:103AC0001C0D072207105169137E01390133516122
:103AD00013765DF8044B7047137E51690133013151
:103AE00013765DF8044B5161704743F00403DAE745
:103AF00053695DF8044BC83B5361704753695DF8E7
:103B0000044BC83353617047137C03F0030300294F
:103B1000CBD043F00403C8E700C50120254BD3F800
:103B2000B820D2E90010D3680968006810B41842C0
:103B3000946801EA040134D0137C03F0030309BB49
:103B400043F008039908013B11740D2B0ED8DFE8F0
:103B500003F0100722070D1C10101C0D0722071080
:103B60005169137E01390133516113765DF8044BBD
:103B70007047137E51690133013113765DF8044BB0
:103B80005161704743F00403DAE753695DF8044B71
:103B9000C83B5361704753695DF8044BC8335361A8
:103BA0007047137C03F003030029CBD043F00403D8
:103BB000C8E700BF00C50120244B9A6DD2E9001070
:103BC000D3680968006810B41842946801EA0401D7
:103BD00034D0137C03F0030309BB43F008039908B6
:103BE000013B11740D2B0ED8DFE803F010072207FC
:103BF0000D1C10101C0D072207105169137E01398E
:103C00000133516113765DF8044B7047137E51699F
:103C10000133013113765DF8044B5161704743F075
:103C20000403DAE753695DF8044BC83B53617047FE
:103C300053695DF8044BC83353617047137C03F03C
:103C400003030029CBD043F00403C8E700C50120DB
:103C5000254BD3F89820D2E90010D3680968006892
:103C600010B41842946801EA040134D0137C03F0C4
:103C7000030309BB43F008039908013B11740D2BA2
:103C80000ED8DFE803F0100722070D1C10101C0DE2
:103C9000072207105169137E0139013351611376F0
:103CA0005DF8044B7047137E51690133013113767F
:103CB0005DF8044B5161704743F00403DAE7536940
:103CC0005DF8044BC83B5361704753695DF8044B82
:103CD000C83353617047137C03F003030029CBD032
:103CE00043F00403C8E700BF00C50120244BDA6D90
:103CF000D2E90010D3680968006810B418429468CB
:103D000001EA040134D0137C03F0030309BB43F040
:103D100008039908013B11740D2B0ED8DFE803F05E
:103D2000100722070D1C10101C0D072207105169E7
:103D3000137E01390133516113765DF8044B7047EE
:103D4000137E51690133013113765DF8044B5161E3
:103D5000704743F00403DAE753695DF8044BC83B4E
:103D60005361704753695DF8044BC8335361704722
:103D7000137C03F003030029CBD043F00403C8E70E
:103D800000C50120254BD3F8C020D2E90010D3682C
:103D90000968006810B41842946801EA040134D03C
:103DA000137C03F0030309BB43F008039908013BAC
:103DB00011740D2B0ED8DFE803F0100722070D1C3D
:103DC00010101C0D072207105169137E01390133B1
:103DD000516113765DF8044B7047137E51690133CE
:103DE000013113765DF8044B5161704743F00403D1
:103DF000DAE753695DF8044BC83B53617047536978
:103E00005DF8044BC83353617047137C03F0030320
:103E10000029CBD043F00403C8E700BF00C5012050
:103E2000244B1A6ED2E90010D3680968006810B4F8
:103E30001842946801EA040134D0137C03F00303B0
:103E400009BB43F008039908013B11740D2B0ED8F0
:103E5000DFE803F0100722070D1C10101C0D0722CD
:103E600007105169137E01390133516113765DF8F2
:103E7000044B7047137E51690133013113765DF8AD
:103E8000044B5161704743F00403DAE753695DF86E
:103E9000044BC83B5361704753695DF8044BC8330A
:103EA00053617047137C03F003030029CBD043F028
:103EB0000403C8E700C50120244B9A6FD2E9001023
:103EC000D3680968006810B41842946801EA0401D4
:103ED00034D0137C03F0030309BB43F008039908B3
:103EE000013B11740D2B0ED8DFE803F010072207F9
:103EF0000D1C10101C0D072207105169137E01398B
:103F00000133516113765DF8044B7047137E51699C
:103F10000133013113765DF8044B5161704743F072
:103F20000403DAE753695DF8044BC83B53617047FB
:103F300053695DF8044BC83353617047137C03F039
:103F400003030029CBD043F00403C8E700C50120D8
:103F5000244B5A6ED2E90010D3680968006810B487
:103F60001842946801EA040134D0137C03F003037F
:103F700009BB43F008039908013B11740D2B0ED8BF
:103F8000DFE803F0100722070D1C10101C0D07229C
:103F900007105169137E01390133516113765DF8C1
:103FA000044B7047137E51690133013113765DF87C
:103FB000044B5161704743F00403DAE753695DF83D
:103FC000044BC83B5361704753695DF8044BC833D9
:103FD00053617047137C03F003030029CBD043F0F7
:103FE0000403C8E700C50120254BD3F8C820D2E957
:103FF0000010D3680968006810B41842946801EA98
:10400000040134D0137C03F0030309BB43F008031D
:104010009908013B11740D2B0ED8DFE803F010074F
:1040200022070D1C10101C0D072207105169137E6A
:1040300001390133516113765DF8044B7047137EEB
:1040400051690133013113765DF8044B51617047BA
:1040500043F00403DAE753695DF8044BC83B53614E
:10406000704753695DF8044BC83353617047137C44
:1040700003F003030029CBD043F00403C8E700BFDB
:1040800000C50120244B9A6ED2E90010D36809685C
:10409000006810B41842946801EA040134D0137C1B
:1040A00003F0030309BB43F008039908013B1174B3
:1040B0000D2B0ED8DFE803F0100722070D1C10109F
:1040C0001C0D072207105169137E0139013351611C
:1040D00013765DF8044B7047137E5169013301314B
:1040E00013765DF8044B5161704743F00403DAE73F
:1040F00053695DF8044BC83B5361704753695DF8E1
:10410000044BC83353617047137C03F00303002949
:10411000CBD043F00403C8E700C50120254BD3F8FA
:104120008820D2E90010D3680968006810B41842EA
:10413000946801EA040134D0137C03F0030309BB43
:1041400043F008039908013B11740D2B0ED8DFE8EA
:1041500003F0100722070D1C10101C0D072207107A
:104160005169137E01390133516113765DF8044BB7
:104170007047137E51690133013113765DF8044BAA
:104180005161704743F00403DAE753695DF8044B6B
:10419000C83B5361704753695DF8044BC8335361A2
:1041A0007047137C03F003030029CBD043F00403D2
:1041B000C8E700BF00C50120244B9A6AD2E900106D
:1041C000D3680968006810B41842946801EA0401D1
:1041D00034D0137C03F0030309BB43F008039908B0
:1041E000013B11740D2B0ED8DFE803F010072207F6
:1041F0000D1C10101C0D072207105169137E013988
:104200000133516113765DF8044B7047137E516999
:104210000133013113765DF8044B5161704743F06F
:104220000403DAE753695DF8044BC83B53617047F8
:1042300053695DF8044BC83353617047137C03F036
:1042400003030029CBD043F00403C8E700C50120D5
:10425000254BD3F89C20D2E90010D3680968006888
:1042600010B41842946801EA040134D0137C03F0BE
:10427000030309BB43F008039908013B11740D2B9C
:104280000ED8DFE803F0100722070D1C10101C0DDC
:10429000072207105169137E0139013351611376EA
:1042A0005DF8044B7047137E516901330131137679
:1042B0005DF8044B5161704743F00403DAE753693A
:1042C0005DF8044BC83B5361704753695DF8044B7C
:1042D000C83353617047137C03F003030029CBD02C
:1042E00043F00403C8E700BF00C50120254BD3F805
:1042F0008C20D2E90010D3680968006810B4184215
:10430000946801EA040134D0137C03F0030309BB71
:1043100043F008039908013B11740D2B0ED8DFE818
:1043200003F0100722070D1C10101C0D07220710A8
:104330005169137E01390133516113765DF8044BE5
:104340007047137E51690133013113765DF8044BD8
:104350005161704743F00403DAE753695DF8044B99
:10436000C83B5361704753695DF8044BC8335361D0
:104370007047137C03F003030029CBD043F0040300
:10438000C8E700BF00C50120254BD3F89420D2E92F
:104390000010D3680968006810B41842946801EAF4
:1043A000040134D0137C03F0030309BB43F008037A
:1043B0009908013B11740D2B0ED8DFE803F01007AC
:1043C00022070D1C10101C0D072207105169137EC7
:1043D00001390133516113765DF8044B7047137E48
:1043E00051690133013113765DF8044B5161704717
:1043F00043F00403DAE753695DF8044BC83B5361AB
:10440000704753695DF8044BC83353617047137CA0
:1044100003F003030029CBD043F00403C8E700BF37
:1044200000C50120244BDA6ED2E90010D368096878
:10443000006810B41842946801EA040134D0137C77
:1044400003F0030309BB43F008039908013B11740F
:104450000D2B0ED8DFE803F0100722070D1C1010FB
:104460001C0D072207105169137E01390133516178
:1044700013765DF8044B7047137E516901330131A7
:1044800013765DF8044B5161704743F00403DAE79B
:1044900053695DF8044BC83B5361704753695DF83D
:1044A000044BC83353617047137C03F003030029A6
:1044B000CBD043F00403C8E700C50120244B5A6F5A
:1044C000D2E90010D3680968006810B418429468F3
:1044D00001EA040134D0137C03F0030309BB43F069
:1044E00008039908013B11740D2B0ED8DFE803F087
:1044F000100722070D1C10101C0D07220710516910
:10450000137E01390133516113765DF8044B704716
:10451000137E51690133013113765DF8044B51610B
:10452000704743F00403DAE753695DF8044BC83B76
:104530005361704753695DF8044BC833536170474A
:10454000137C03F003030029CBD043F00403C8E736
:1045500000C50120244BDA6FD2E90010D368096846
:10456000006810B41842946801EA040134D0137C46
:1045700003F0030309BB43F008039908013B1174DE
:104580000D2B0ED8DFE803F0100722070D1C1010CA
:104590001C0D072207105169137E01390133516147
:1045A00013765DF8044B7047137E51690133013176
:1045B00013765DF8044B5161704743F00403DAE76A
:1045C00053695DF8044BC83B5361704753695DF80C
:1045D000044BC83353617047137C03F00303002975
:1045E000CBD043F00403C8E700C50120254BD3F826
:1045F0008420D2E90010D3680968006810B418421A
:10460000946801EA040134D0137C03F0030309BB6E
:1046100043F008039908013B11740D2B0ED8DFE815
:1046200003F0100722070D1C10101C0D07220710A5
:104630005169137E01390133516113765DF8044BE2
:104640007047137E51690133013113765DF8044BD5
:104650005161704743F00403DAE753695DF8044B96
:10466000C83B5361704753695DF8044BC8335361CD
:104670007047137C03F003030029CBD043F00403FD
:10468000C8E700BF00C50120244B9A68D2E900109A
:10469000D3680968006810B41842946801EA0401FC
:1046A00034D0137C03F0030309BB43F008039908DB
:1046B000013B11740D2B0ED8DFE803F01007220721
:1046C0000D1C10101C0D072207105169137E0139B3
:1046D0000133516113765DF8044B7047137E5169C5
:1046E0000133013113765DF8044B5161704743F09B
:1046F0000403DAE753695DF8044BC83B5361704724
:1047000053695DF8044BC83353617047137C03F061
:1047100003030029CBD043F00403C8E700C5012000
:10472000254BD3F8D020D2E90010D368096800687F
:1047300010B41842946801EA040134D0137C03F0E9
:10474000030309BB43F008039908013B11740D2BC7
:104750000ED8DFE803F0100722070D1C10101C0D07
:10476000072207105169137E013901335161137615
:104770005DF8044B7047137E5169013301311376A4
:104780005DF8044B5161704743F00403DAE7536965
:104790005DF8044BC83B5361704753695DF8044BA7
:1047A000C83353617047137C03F003030029CBD057
:1047B00043F00403C8E700BF00C50120254BD3F830
:1047C000D420D2E90010D3680968006810B41842F8
:1047D000946801EA040134D0137C03F0030309BB9D
:1047E00043F008039908013B11740D2B0ED8DFE844
:1047F00003F0100722070D1C10101C0D07220710D4
:104800005169137E01390133516113765DF8044B10
:104810007047137E51690133013113765DF8044B03
:104820005161704743F00403DAE753695DF8044BC4
:10483000C83B5361704753695DF8044BC8335361FB
:104840007047137C03F003030029CBD043F004032B
:10485000C8E700BF00C50120254BD3F8D820D2E916
:104860000010D3680968006810B41842946801EA1F
:10487000040134D0137C03F0030309BB43F00803A5
:104880009908013B11740D2B0ED8DFE803F01007D7
:1048900022070D1C10101C0D072207105169137EF2
:1048A00001390133516113765DF8044B7047137E73
:1048B00051690133013113765DF8044B5161704742
:1048C00043F00403DAE753695DF8044BC83B5361D6
:1048D000704753695DF8044BC83353617047137CCC
:1048E00003F003030029CBD043F00403C8E700BF63
:1048F00000C50120254BD3F8AC20D2E90010D368C5
:104900000968006810B41842946801EA040134D0C0
:10491000137C03F0030309BB43F008039908013B30
:1049200011740D2B0ED8DFE803F0100722070D1CC1
:1049300010101C0D072207105169137E0139013335
:10494000516113765DF8044B7047137E5169013352
:10495000013113765DF8044B5161704743F0040355
:10496000DAE753695DF8044BC83B536170475369FC
:104970005DF8044BC83353617047137C03F00303A5
:104980000029CBD043F00403C8E700BF00C50120D5
:10499000254BD3F8B420D2E90010D3680968006829
:1049A00010B41842946801EA040134D0137C03F077
:1049B000030309BB43F008039908013B11740D2B55
:1049C0000ED8DFE803F0100722070D1C10101C0D95
:1049D000072207105169137E0139013351611376A3
:1049E0005DF8044B7047137E516901330131137632
:1049F0005DF8044B5161704743F00403DAE75369F3
:104A00005DF8044BC83B5361704753695DF8044B34
:104A1000C83353617047137C03F003030029CBD0E4
:104A200043F00403C8E700BF00C50120254BD3F8BD
:104A3000BC20D2E90010D3680968006810B418429D
:104A4000946801EA040134D0137C03F0030309BB2A
:104A500043F008039908013B11740D2B0ED8DFE8D1
:104A600003F0100722070D1C10101C0D0722071061
:104A70005169137E01390133516113765DF8044B9E
:104A80007047137E51690133013113765DF8044B91
:104A90005161704743F00403DAE753695DF8044B52
:104AA000C83B5361704753695DF8044BC833536189
:104AB0007047137C03F003030029CBD043F00403B9
:104AC000C8E700BF00C50120254BD3F8C420D2E9B8
:104AD0000010D3680968006810B41842946801EAAD
:104AE000040134D0137C03F0030309BB43F0080333
:104AF0009908013B11740D2B0ED8DFE803F0100765
:104B000022070D1C10101C0D072207105169137E7F
:104B100001390133516113765DF8044B7047137E00
:104B200051690133013113765DF8044B51617047CF
:104B300043F00403DAE753695DF8044BC83B536163
:104B4000704753695DF8044BC83353617047137C59
:104B500003F003030029CBD043F00403C8E700BFF0
:104B600000C501200000000043782DE9F041044613
:104B70002DED028B82B0002B00F0A1800378002B7A
:104B800000F0848003690F4682690221DFF8D48136
:104B900093424269D8F80050C8BF8361C368D8F80F
:104BA00000609342B8BF4361D0E90123134483609E
:104BB000C369ED1A036A6048F61A1DF06DFA37B141
:104BC000384620F01DFE014638461DF065FAA369FF
:104BD00022695A495A481AF089FC6369E2685949BE
:104BE00057481AF083FC07EE905A5749B8EE675AB7
:104BF000D4ED027A5248B8EEE76AD4ED017AB7EE06
:104C0000C55A524FB8EEE77A07EE906AB7EEC66A19
:104C1000B8EE678AB7EEC77A9FED414BB7EEC88A08
:104C200085EE043B88EE042B87EE037B86EE025B69
:104C300053EC172B8DED005B1AF058FC0321444810
:104C40001DF02AFAA7FB05310A22002389093C48F6
:104C50001AF05AFC03213F481DF01EFA3E4B9E42BB
:104C60004FD84EF660239E423ED8A7FB0671002324
:104C70000A22334889091AF047FC012137481DF000
:104C80000BFA012136481DF007FA09E0DFF8D4805D
:104C900042F20F7283618360D8F800304261036290
:104CA0000023D8F8002042F20F7163602370E261A4
:104CB000C4E9031302B0BDEC028BBDE8F0812949C1
:104CC00042F20F72836183600D68086801212562DA
:104CD000E26063602370E0616170C4E9043202B095
:104CE000BDEC028BBDE8F0819FED0F0B0121144854
:104CF00088EE000B1AF01CFC01211B481DF0CCF9BA
:104D0000BFE79FED0B0B01210D4888EE000B1AF059
:104D10000FFC012115481DF0BFF9B2E7AFF3008089
:104D20000000000000408F4000000000004CED40FB
:104D30000000000040774B41183900204822002035
:104D4000382401205422002060220020D34D62101C
:104D5000742200207822002080EE3600B03C002033
:104D60001046002058CE01207C2200200453002051
:104D700038B5037B04460D4693B900680F4AA36813
:104D800012680F49D31AA260A1FB03139B09B0FB61
:104D9000F3F00023A84223602CBF401B002038BD45
:104DA0001BF056F8237B1BB9206800232373E5E72B
:104DB000D4E900329B1A1844F7E700BF58CE01200F
:104DC000D34D6210000000005B4B1B6830B50446F9
:104DD00083B08362092938D8DFE801F04716163717
:104DE00005272737055790F85130042B0AD00020AB
:104DF000A17C84F8520084F85310002A78D104234F
:104E000084F8513003B030BD90F85130022BF9D006
:104E1000407C002184F8520084F85310002A5FD1AE
:104E2000022384F8513003B030BD90F85130032B89
:104E3000E8D00020A17C84F8520084F85310002AA6
:104E40005ED1032384F85130DCE790F85130002B19
:104E5000D8D00025026C3949A0F852503848009546
:104E60001AF044FB84F85150CCE790F85130012BF4
:104E7000C8D0407C002184F8520084F85310002AE6
:104E80004ED1012384F85130BCE790F85130052B06
:104E900021D0417CB6EE084B06EE101A817C07EE5D
:104EA000101AB8EEC66BB8EEC77B26EE046B9FED0A
:104EB000205BFCEEC66B27EE057B16EE900A84F8AD
:104EC0005200FCEEC77B17EE901A84F85310FAB923
:104ED000052384F85130002384F8303003B030BD0E
:104EE0000220226C1549009015481AF0FFFA97E746
:104EF0000420226C1149009011481AF0F7FA7EE75D
:104F00000320226C0D4900900D481AF0EFFA98E743
:104F10000520226C0949009009481AF0E7FAD7E702
:104F20000120226C0549009005481AF0DFFAA8E735
:104F30009A9999999999E93F58CE012080220020A9
:104F400038240120F8B51DF081F8C4B2722C27D0A6
:104F5000A4F15203212B68D8DFE813F0D8006700D2
:104F60006700670067006700670067006700670009
:104F70006700670067006700670067006700DE0082
:104F800067006700670067006700670067006700E9
:104F90006700ED00F60067006700670067000A0120
:104FA0001C21C2481DF078F8C149C24800230C6892
:104FB00042F20F724360C4610C6803708360046244
:104FC0000C68C0E90323C0E90523BB48C4610C6831
:104FD00043600370836004620C68C0E90323C0E986
:104FE0000523B648C4610C68436003708360C0E960
:104FF0000323C0E905230462B1480C684360C4611F
:105000000C680370046283600C680968C0E90523BA
:10501000C0E90323AB48C0E9032343600370426146
:1050200083600162C0E90634F8BD672C00F0AA81F4
:105030006C2C00F0B881312C00F0D781A4F10A0368
:105040002F2B00F29D8001A252F823F0292E0000A0
:10505000812F0000812F0000292E0000812F0000E9
:10506000812F0000812F0000812F0000812F000080
:10507000812F0000812F0000812F0000812F000070
:10508000812F0000812F0000812F0000812F000060
:10509000812F0000812F0000812F0000812F000050
:1050A000812F0000812F0000812F0000812F000040
:1050B000812F0000812F0000812F0000812F000030
:1050C000812F0000812F0000812F0000812F000020
:1050D000812F0000812F0000812F0000812F000010
:1050E000812F0000292E0000812F00004531000093
:1050F000812F0000812F0000193100008F30000047
:10510000713000000F300000AD2F00004FF0E023A1
:105110006D4AC3F80C2DF8BD6C4C6D4923786D4871
:1051200083F001032370FDF719FC21786948BDE87D
:10513000F8401AF0B3B91CF045FF00287FF77BAFA9
:10514000BDE8F8401CF082BF1CF03CFF28B11CF009
:1051500017FFC0B2322800F057815F4C5F4A2378B6
:105160005F4983F001035B48237082F88334DAE7F8
:105170005C4C5D492378574883F001032370D2E7E4
:105180005A495448FDF7EAFB214600230A225148B8
:105190001AF0BAF956494F48FDF7E0FB01E01CF060
:1051A00055FF1CF00FFF0028F9D1F8BD514C8823A2
:1051B00001255149474884F8A53084F8305184F8D6
:1051C0002F51FDF7CBFB2946204607F04DFA00286A
:1051D00040F0378149493F48FDF7C0FBE0230125F6
:1051E0003C48474984F8A53084F8305184F82F5161
:1051F000FDF7B4FB29463F4807F036FA002840F097
:105200001A813E493348BDE8F840FDF7A7BB3D4C45
:1052100000233D4F0F21251D264638461A4607F02C
:105220005BFDAE4208D0002316F8011F38461A462F
:1052300007F052FDAE42F6D13449354A354B486845
:105240001268A3FB02329623920C03FB02F24B6816
:105250001B1A9A42FBD80F212B4E0123BB2230464A
:1052600007F03AFDA5423FF4DFAE14F8011FF4E762
:10527000244C0F21244E251D0123BB22304607F06C
:105280002BFDA5423FF4D0AE14F8011FF4E71D4CEE
:105290000F211D4E251D01230022304607F01CFD65
:1052A000AC423FF4C1AE14F8011FF4E784190020AA
:1052B00058CE01207CCA0120A0CA0120E8CC0120E0
:1052C0000CCD0120BCC901200400FA05C7CE012085
:1052D000D419002038240120C3CE0120707201208F
:1052E000BC190020C8CE0120F0190020C01B0020EE
:1052F000E81B00208C2601207C1B0020941B002032
:10530000AC1B002000210020D8CC0120001000E0C0
:105310003424012083DE1B436D4C00236D4E0F218E
:10532000251D1A46304607F0D7FCA5423FF47CAE57
:10533000002314F8011F30461A4607F0CDFCA542A1
:10534000F6D1F8BD644E1AF083FD04463578002D81
:105350007CD0012D00F0A180022D00F0AB801AF06E
:1053600077FD5E4905465E48FDF7F8FA291B0023E4
:105370000A225B481AF0C8F85A495948BDE8F84073
:10538000FDF7ECBA1CF01EFE00287FF7F9AE1CF00A
:105390005DFE3038C1B205293FF646AE01225248C3
:1053A000FFF712FDF8BD1CF00DFE00287FF7E8AEF8
:1053B0001CF04CFEC0B2A0F13004E3B2052B3FF666
:1053C00033AE00EB8003484A484903EB830344486B
:1053D0005B00603B1374FDF7C1FA3221404804FBC7
:1053E00001F1BDE8F8401AF059B8414E1AF030FD0D
:1053F0000446357895B1012D35D0022D40D01AF0F4
:1054000027FD3C490546AEE73B4C1CF01FFE3B49DF
:105410002378334883F00103237084E63849304809
:10542000FDF79CFA01232A460F212A4807F054FC75
:1054300001233370E3E733492948BDE8F840FDF71D
:105440008DBA30492648FDF789FAC7E62E49244827
:10545000FDF784FA01232A460E211E4807F03CFC82
:10546000012333707BE729491D48FDF777FA2B4666
:10547000ED220F21174807F02FFC02233370BEE7FF
:1054800023491748FDF76AFA00230F2111481A46ED
:1054900007F022FC00233370B1E71E491048FDF7E6
:1054A0005DFA2B46ED220E210A4807F015FC022377
:1054B000337054E718490A48FDF750FA00230E21CB
:1054C00004481A4607F008FC0023337047E700BF82
:1054D00000210020D8CC0120AFCE0120741B002079
:1054E00038240120D01A0020ECBF0120081A002027
:1054F000AECE0120C81A0020C4CE0120A41900207D
:10550000241A00209C1B0020D41A0020541A0020CA
:10551000981A0020001B0020441B00201A4A30B5B6
:1055200092F8983083B0C3F19603092B1BDC01ABD2
:1055300018461DF05BFBC1B2022912D0032908BF37
:10554000042101221148FFF73FFC0D201AF0D4FC82
:1055500001460D20B1FA81F149091AF0A3FC03B00C
:1055600030BD0521EDE792F88C4001AB92F88D102B
:10557000002014440131657811446070184620F011
:105580005DF865700346D3E7D8CB0120ECBF01205E
:105590002DE9F047DFF8A89241F28832416A82B0E3
:1055A000D9F8003004465B1A934200F2AC80D9F877
:1055B000003040F6B832A16A5B1A934200F28F8045
:1055C000D9F80030216AA28D5B1A9A4275D2D9F8B7
:1055D0000030274604F1130604F11F0ADFF8648245
:1055E000236297F84C30023B012B03D894F82E30FD
:1055F000002B69D197F84D302046217CC3EB033254
:1056000097F84E50A8FB02320123D20901FB02F2A7
:10561000A8FB02127178C2F3CF1207F05DFB217C68
:10562000C5EB053235460123A8FB02022046D2090C
:1056300001FB02F2A8FB0212B178C2F3CF1207F00D
:105640004BFB0123002215F8031F204607F044FB03
:10565000554507F105072E46C3D194F82E3083F047
:10566000010384F82E3043BBD9F800200121A08D1E
:1056700084F82F3002EB5003628E84F83010A3EBD5
:1056800052036363D9F800209A421AD901232746AE
:1056900004F10C082646DFF8ACA184F82F3097F807
:1056A00050300537002B40F09C800336B045F6D1D2
:1056B00094F82F302BB1636B3FE094F83030002B1F
:1056C00036D102B0BDE8F087F51C16F8011F0123A2
:1056D0000022204607F000FBAE42F6D1B8E7D9F829
:1056E000002094F85130A262002B3FF469AF0025EE
:1056F000226C5149A4F852505048009519F0F6FE1A
:1057000084F851505CE790F84C30032B3FF44FAFD6
:10571000817C0325002280F84E1080F84D204649F8
:105720000095C26B454819F0E1FE84F84C503EE705
:1057300094F82F20636B002AA4D0628ED9F8001051
:1057400013448B42BDD24FF0000A264604F11305E4
:1057500004F11F0984F830A096F85030DFF8E48097
:105760004BB9EF1C4F453D4606F10506A9D096F80A
:105770005030002BF5D096F84C30023B012B4FD91E
:1057800096F84D30204696F84E70C3EB0332697898
:10579000A8FB0232237CD20903FB02F2A8FB0232EF
:1057A0000123C2F3CF1207F097FAA978C7EB0732AB
:1057B0002F462046A8FB0232237CD20903FB02F2CB
:1057C000A8FB02320123C2F3CF1207F085FA0123AE
:1057D000002217F8031F204607F07EFA86F850A033
:1057E000C0E7E57C2046317D0123002207F074FAF2
:1057F000717D01232046002207F06EFAB17DC5EBD2
:1058000005322046AAFB0232237CD20903FB02F2B6
:10581000AAFB02320123C2F3CF1207F05DFA44E77C
:10582000EF1C15F8011F01230022204607F054FA4F
:10583000BD42F6D1D2E700BF8022002038240120EB
:1058400058CE01208180808006EE902A00F5886283
:105850002DE9F043B8EEE61B06EE903A044600F55B
:105860008467B8EEE64B00F5826004F586662DEDA0
:10587000028B83B0C4F84814DDED0C6ADDED0F5ADD
:10588000B8EEE62BDDED0D6AB8EEE55B119BB8EEE8
:10589000E63BDDED0E6A9FEDAA8BB8EEE66B9FED61
:1058A000AA7B9FEDAB0BA6EE087BDDED106AB8EE90
:1058B000E66B25EE005B26EE006B21EE001B24EE6E
:1058C000004B32EE052B33EE063B9FEDA30B80ED34
:1058D000001B07ED024BB4EEC07B02ED025BF1EE64
:1058E00010FA87ED002BA8BF37EE407B82ED006BEE
:1058F000B5EEC07B06ED023BF1EE10FA03D59FED4D
:10590000966B37EE067B94F883249FED956B27EE1C
:10591000067B86ED007BC4F86834002A40F0848062
:10592000954D2A68D4F80014521AC4F888242A68BD
:10593000C4F800242A68C4F8902494F8812412B989
:10594000012284F88424012213F0010503F00208E7
:1059500003F0040984F8822484F88124C3F3C1028B
:10596000C4F8782431D0B8F1000F3DD0B9F1000F60
:1059700049D02DB3D4F87834012B40F39A8016ED3A
:10598000027BB5EE407BF1EE10FA00F08B8004F55F
:105990008E6597ED000B80EE070B1CF0D9FD9FED97
:1059A000727B20EE070B012194F8833485ED000B08
:1059B00084F88014002B40F09280704C84ED000B32
:1059C00003B0BDEC028BBDE8F08311216C481CF0E4
:1059D00063FB29466B4819F061FD04216A481CF0FD
:1059E0005BFBB8F1000FC1D1102168481CF054FBDB
:1059F0004146644819F052FD042163481CF04CFBF9
:105A0000B9F1000FDCD1132161481CF045FB0021E6
:105A10005C4819F043FD04215B4803B0BDEC028BE8
:105A2000BDE8F0431CF038BB534D022159481CF02F
:105A300033FB002329680A22524819F065FDB4F8A7
:105A4000982455494F4819F051FDD4F8003429687D
:105A50000A224C48C91A002319F056FD01214F486B
:105A60001CF01AFBD4F848144D4B4648A3FB012305
:105A70004FF47A729B0902FB13114A4B0A22A3FBD3
:105A800001310023C90819F03FFD012143481CF0F2
:105A900003FB02213B4896ED000B19F049FDD4F8B9
:105AA00068343EE79FED2A6B37EE067B06ED027BFE
:105AB0006DE794F88334002B3BD00E213A4804F56F
:105AC0008E651CF0E9FAD4F878142E4819F0E6FC3B
:105AD00095ED000B9FED267B20EE070B63E72F482B
:105AE000264C1CF0D9FA0221264895ED000B19F03E
:105AF0001FFDB6EE007B94ED006B95ED000B36EECE
:105B0000475BB4EEC50BF1EE10FA07D936EE077B12
:105B1000B4EEC70BF1EE10FAFFF650AF2349194867
:105B20008DED000B53EC162B19F0E0FC95ED000BFE
:105B300044E718491348FCF711FFBEE7AFF30080B4
:105B40002D431CEBE2361A3F0000000000208C4081
:105B50007B14AE47E17A843F000000000020AC4097
:105B60009A9999999999B93FF8C1631ADCA54CC0E3
:105B7000CDCCCCCCCCCCEC3F58CE0120E070012079
:105B80006021002038240120FC2200207421002004
:105B900088210020183900204C2100207449002061
:105BA000D34D6210CDCCCCCC9C210020AC21002068
:105BB00070B5044686B01AF04BF9D4F80834A568DD
:105BC000C01A072DC4F88C046FD03C2D40F0D18052
:105BD000E07FA27F617F42EA002294F8235094F88C
:105BE000330094F8223041EA022194F8322043EA4B
:105BF000052394F8315042EA002294F8570094F8B3
:105C000055E045EA022594F8562094F82AC042EA65
:105C1000002294F82F004EEA022E94F82B204CEA32
:105C2000022C94F82E2042EA002294F8540040EA14
:105C30000E20059094F8300040EA0520029094F878
:105C4000270094F8265045EA002594F8290040EAF8
:105C50000C2094F82DC04CEA022C94F83B200492BE
:105C600094F83A20039294F8212042EA032294F80F
:105C7000253043EA052394F8245045EA032394F899
:105C8000205045EA0222257F45EA012194F82C5054
:105C900045EA0C25019594F8285045EA0025204650
:105CA0000095FFF7D1FD06B070BD94F8333094F83D
:105CB000320094F8312040EA032094F8303094F810
:105CC000375042EA002294F8361094F8830443EAED
:105CD000022394F83B2041EA0521E57E06EE103AC6
:105CE00094F83A3043EA022394F83520B8EEC66BB4
:105CF00042EA012294F8391041EA032194F8343041
:105D000043EA022304F58C6205EE103A94F8383029
:105D10009FED377BB8EEC55B43EA0123A17E26EEFB
:105D2000076B41EA0521384D25EE075B07EE103A77
:105D3000637EB8EEC77B43EA0123217E9FED2E4BA5
:105D400041EA032694F82F3027EE047B84F84C3484
:105D500004F58A6383ED005B02ED026B82ED007B4C
:105D6000F0B92A682B68C4F80424C4F8943406B047
:105D700070BD112125481CF08FF900231022E9B2D3
:105D8000234819F0C1FB052122481CF085F90023A6
:105D9000102221791E4806B0BDE8704019F0B4BB4E
:105DA0001D491B48FCF7DAFD296800230A22184820
:105DB00019F0AAFB0C2119481CF06EF9D4F8043430
:105DC00029680A221248C91A002319F09DFB1449B8
:105DD0000F48FCF7C3FD07EE906A02210C48B8EEAD
:105DE000677B9FED070B87EE000B19F0A1FBB8E76F
:105DF00048AFBC9AF2D77A3EFCA9F1D24D62503F2F
:105E00000000000000408F4058CE012030210020CB
:105E100038240120442100201839002020210020AE
:105E200074490020B52970B50D4604462BD062296F
:105E300018D02378022B07D0033B052B11D8DFE8BD
:105E400003F04B5E728BA3B3237C0321627C2B4453
:105E500065602170DBB21A44237494F88334627451
:105E60007BBB70BD0378012BE4D10221002290F8A6
:105E7000833401700282002BF3D070497048BDE872
:105E80007040FCF76BBD4369002BD2DA012303702D
:105E900019F0DEFF94F88334C4F80804002BE0D036
:105EA00068496748FCF75AFD674900230A220968D8
:105EB000634819F029FB65496148BDE87040FCF76B
:105EC0004DBD63481CF0E8F82946002310225C48C9
:105ED000BDE8704019F018BB237C0421627C2B4480
:105EE000A5602170DBB21A44237494F88334627481
:105EF000002BB6D056495248FCF730FDE4E7237C2E
:105F00000520627C2B4494F88314E560DBB220709A
:105F10001A44237462740029A3D04E494848BDE84E
:105F20007040FCF71BBD237C0620E1682B44627C9B
:105F300001EB05212070DBB20020E1601A4494F8E7
:105F4000831460612374627400298AD042493C48FA
:105F5000BDE87040FCF702BD237CEAB2617C1344CB
:105F6000DBB21944237463696174E11801330A7662
:105F700094F883246361002A50D1E2689A427FF446
:105F800070AF0723237070BD237CAB421AD1082267
:105F900094F883342270002B3FF463AF2F492848D4
:105FA000BDE87040FCF7DABC637CAB4220D194F8CA
:105FB0008334002B3CD12046FFF7FAFD4FF0FF332E
:105FC000636170BD00254FF0FF331E4963611C48BB
:105FD0002570FCF7C3FC1C492B460A2209681848A7
:105FE00019F092FA1E491648BDE87040FCF7B6BC9D
:105FF00000254FF0FF331349636111482570FCF70A
:10600000ADFC11492B460A2209680D4819F07CFAAB
:1060100014490B48BDE87040FCF7A0BC0848124981
:10602000FCF79CFC2946064819F038FA6369A4E796
:106030000E490348FCF792FCBDE700BF0422002094
:10604000382401201839002058CE0120F8210020E2
:106050000C220020102200201422002018220020F0
:106060001C2200203422002074490020302200200D
:106070009FED9D7B90ED042B9FED9D3B9FED9E1B27
:1060800022EE072B90ED164B90ED0E5B22EE032BCC
:1060900024EE014B25EE075B90ED086B10B532EE58
:1060A000067B044680ED0A4B37EE447B80ED0E5BA9
:1060B000B5EEC07B80ED042BF1EE10FA03D59FED19
:1060C000904B37EE047B9FED904BB4EEC47BF1EE2A
:1060D00010FAC0F2F7809FED8E4BB4EEC47BF1EE68
:1060E00010FA00F2EF80B1EE477B9FED854BB4EEE6
:1060F000C47BF1EE10FAC8BF37EE447B9FED864BB0
:1061000084ED067BB4EEC47BF1EE10FA05D59FED6D
:106110007C4B37EE047B84ED067BB0EEC74B9FEDE6
:10612000803BB4EEC34BF1EE10FA40F1D7809FED07
:106130006E3BA7EE036B9FED724B9FED777BB4EE4A
:10614000C46BF1EE10FAC8BF36EE446BB4EEC76B09
:1061500084ED086BF1EE10FA05D59FED697B36EE04
:10616000076B84ED086BB7EEC55B32EE067B94EDF2
:10617000124BB7EEC55A9FED6C1B34EE454B9FEDAD
:10618000602B24EE016BB4EEC27B94ED023B9FEDDD
:10619000680BF1EE10FAA3EE006BC8BF37EE427B3E
:1061A00084ED004BB5EEC07BF1EE10FA84ED026B8E
:1061B00003D59FED536B37EE067B0C2162489FEDB4
:1061C0005E6B27EE067B84ED0C7B1BF065FF5F4862
:1061D00019F070F909215E481BF05EFF02215B484F
:1061E00094ED160B19F0A4F9584819F063F90A2137
:1061F00058481BF051FF0221544894ED120B19F03E
:1062000097F9524819F056F90C2153481BF044FFF6
:106210004E4819F04FF9132150481BF03DFF022161
:106220004A4894ED040B19F083F9484819F042F9F3
:1062300006214B481BF030FF0221444894ED0E0B21
:1062400019F076F9414819F035F90F2145481BF04E
:1062500023FF3E4819F02EF90F2143481BF01CFF85
:1062600002213A4894ED080B19F062F9374819F009
:1062700021F90B213D481BF00FFF0221334894ED1B
:10628000000B19F055F9314819F014F9112138486B
:106290001BF002FF02212D4894ED020B19F048F982
:1062A0002A4819F007F90E2132481BF0F5FE0221A9
:1062B000264894ED0C0B19F03BF92448BDE810403A
:1062C00019F0F8B89FED124BB4EEC47B9FED0C4B68
:1062D000F1EE10FA05DD34EE477B06E79FED183B43
:1062E00027E737EE047BFEE69A9999999999B93F89
:1062F000399D52A246DF91BF399D52A246DF913FA0
:10630000182D4454FB211940182D4454FB21F9BF8A
:10631000182D4454FB21F93F182D4454FB2119C07A
:106320000AD7A3703D0AC73F333333333333D33FE8
:10633000666666666666E63FF8C1631ADCA54C4091
:106340009A9999999999C93F0423002038240120EA
:1063500014230020202300202C2300203C23002095
:106360005023002058230020682300207823002099
:1063700084230020982300202DE9F0477C4C84B032
:1063800019F066FD012394F898507A4EC5F19605F0
:1063900070609D42337300F3A280002D00F3908063
:1063A000754B012293F8811483F8802409B983F88E
:1063B00084240122714F724C83F881243A68C3F817
:1063C000902494F86030002B34D16E481CF00AFC05
:1063D0006D4D94F8603085ED000B002B59D16B4B5F
:1063E000042B00F0B9806A4A403595ED000B9FED13
:1063F0005E7B137820EE070B85ED000B002B51D050
:106400000A2200233968634819F07EF8624961481E
:1064100019F06CF801A81FF0F3F901AB0238184429
:106420001CF0E4FB01465B4819F038F8594819F0B4
:1064300041F837E0594B5A4D1B785A4A29465A4879
:10644000D25CFCF773FA59481CF0CCFB4D4884ED44
:10645000120B1CF0C7FBB5F90030204606EE103ACF
:10646000B5F9023007EE103AB8EEC66BB8EEC77B4E
:1064700084ED160B84ED046B84ED0E7BFFF7F8FDC5
:1064800094F86030002BA0D03F4BD4E90C01C3E955
:10649000000194ED020B464D3D4A137885ED000B4B
:1064A000002BADD119F0D4FC337B23B1D6E90032F7
:1064B0009B1A034433600023337304B0BDE8F087B4
:1064C00094F89550002394F8961001A825440131C2
:1064D00021446C786B701FF0B1F86C7060E794F831
:1064E00094704FF0000994F895102744DFF89480D9
:1064F000194497F801A04046214487F801901FF005
:106500009DF8022D87F801A0DAD094F8937008F175
:10651000080094F894102744013197F801A0214411
:1065200087F801901FF08AF8042D87F801A0C7DDD5
:1065300094F8915094F89200254401306F782044EB
:1065400085F801901CF052FB6F7094F89850C8F8D1
:106550001000C5F1960520E7144840351CF042FBB9
:106560009AE700BFAFF30080CDCCCCCCCCCCEC3FD5
:10657000D8CB012074C001207072012058CE0120B8
:1065800070710120187D0120A0760120B0790120D2
:10659000C3CE012038240120D4140020503401201F
:1065A000B0C901201421002040C90120207D012014
:1065B000E07601200B484FF0FF0C01210F220378F9
:1065C00080F80DC0437190F801C083728378017226
:1065D0004FF4967180F806C080F80BC0C371037346
:1065E00019F0D0BE2837012070B5012019F020FD28
:1065F00004460220E4B219F01BFD40F6641360F378
:106600000F24A4B29C42174C1BD002220121164831
:1066100004F10F05C4F5967619F0B4FE0F224FF47D
:106620009671124819F0AEFEA01919F001FD04F898
:10663000010BAC42F8D12A210D48BDE870401BF097
:106640002BBD04F10F05C4F59676A01919F0F0FCE6
:1066500004F8010BAC42F8D122210648BDE8704095
:106660001BF01ABD2837012080220120C420002001
:106670000C1F0020381F0020D0E90021C3681268D9
:10668000096810B41942846802EA040234D0037C19
:1066900003F003030ABB43F008039A08013B0274AA
:1066A0000D2B0ED8DFE803F0100722070D1C101089
:1066B0001C0D072207104269037E013A0133426133
:1066C00003765DF8044B70474269037E01325DF842
:1066D000044B013342610376704743F00403DAE769
:1066E00043695DF8044BC83B4361704743695DF8FB
:1066F000044BC83343617047037C03F00303002A53
:10670000CBD043F00403C8E70B4610B5362800F29F
:106710009782DFE810F08C02820279027002670231
:106720005E0255024C0243023A02310228021F0265
:10673000BF01B601AD01A4019B0192018901800155
:1067400077016E0165015C0153014A014101380185
:106750002F0126011D0113010901FF00F500EB00C7
:10676000E100D700CD00C300B900AF00A5009B0039
:10677000910087007D00730069005F0055004B00A9
:1067800041003700C84C0422C8493620C4F8D8302C
:1067900019F00AFE012010BDC34C0422C449352063
:1067A000C4F8D43019F000FE012010BDBE4C042204
:1067B000C0493420C4F8D03019F0F6FD012010BDD6
:1067C000B94C0422BC493320C4F8CC3019F0ECFD9C
:1067D000012010BDB44C0422B8493220C4F8C8309E
:1067E00019F0E2FD012010BDAF4C0422B449312064
:1067F000C4F8C43019F0D8FD012010BDAA4C042201
:10680000B0493020C4F8C03019F0CEFD012010BDD1
:10681000A54C0422AC492F20C4F8BC3019F0C4FDAB
:10682000012010BDA04C0422A8492E20C4F8B83085
:1068300019F0BAFD012010BD9B4C0422A4492D2063
:10684000C4F8B43019F0B0FD012010BD964C0422FC
:10685000A0492C20C4F8B03019F0A6FD012010BDCD
:10686000914C04229C492B20C4F8AC3019F09CFDBB
:10687000012010BD8C4C042298492A20C4F8A8306D
:1068800019F092FD012010BD874C04229449292063
:10689000C4F8A43019F088FD012010BD824C0422F8
:1068A00090492820C4F8A03019F07EFD012010BDC9
:1068B0007D4C04228C492720C4F89C3019F074FDCB
:1068C000012010BD784C042288492620C4F8983055
:1068D00019F06AFD012010BD734C04228449252063
:1068E000C4F8943019F060FD012010BD6E4C0422F4
:1068F00080492420C4F8903019F056FD012010BDC5
:10690000694C04227C492320C4F88C3019F04CFDDA
:10691000012010BD644C042278492220C4F888303C
:1069200019F042FD012010BD5F4C04227449212062
:10693000C4F8843019F038FD012010BD5A4C0422EF
:1069400070492020C4F8803019F02EFD012010BDC0
:10695000554C04226C491F20E36719F025FD0120E6
:1069600010BD514C042269491E20A36719F01CFD7B
:10697000012010BD4C4C042265491D20636719F0AD
:1069800013FD012010BD484C042262491C202367DE
:1069900019F00AFD012010BD434C04225E491B2062
:1069A000E36619F001FD012010BD3F4C04225B4954
:1069B0001A20A36619F0F8FC012010BD3A4C0422FD
:1069C00057491920636619F0EFFC012010BD364CC1
:1069D000042254491820236619F0E6FC012010BD5A
:1069E000314C042250491720E36519F0DDFC0120E9
:1069F00010BD2D4C04224D491620A36519F0D4FC7E
:106A0000012010BD284C042249491520636519F066
:106A1000CBFC012010BD244C0422464914202365E0
:106A200019F0C2FC012010BD1F4C04224249132062
:106A3000E36419F0B9FC012010BD1B4C04223F494E
:106A40001220A36419F0B0FC012010BD164C0422E2
:106A50003B491120636419F0A7FC012010BD124CC2
:106A6000042238491020236419F09EFC012010BD37
:106A70000D4C042234490F20E36319F095FC0120EA
:106A800010BD094C042231490E20A36319F08CFC7F
:106A9000012010BD044C04222D490D20636319F020
:106AA00083FC012010BD00BF00C501205926000055
:106AB000BD25000021250000B90D0000E91D0000E2
:106AC000C9280000851B00002D2800001D190000AA
:106AD00091270000B5160000F5260000550E0000B5
:106AE000E9110000E917000051200000511A0000D0
:106AF000892100001D130000ED2000001D1F000073
:106B0000ED2300008115000055230000B91C000092
:106B1000BD2200005114000025220000851E000047
:106B2000511D0000211C0000ED1A0000B9190000E1
:106B300085180000511700001D160000E914000020
:106B4000B91300008512000051110000B9100000B7
:106B5000211000003B4C04223B490C20236319F018
:106B600023FC012010BD374C042238490B20E3627E
:106B700019F01AFC012010BD324C042234490A20BD
:106B8000A36219F011FC012010BD2E4C04223149E2
:106B90000920636219F008FC012010BD294C042271
:106BA0002D490820236219F0FFFB012010BD254C60
:106BB00004222A490720E36119F0F6FB012010BDE9
:106BC000204C042226490620A36119F0EDFB012088
:106BD00010BD1C4C042223490520636119F0E4FB1D
:106BE000012010BD0422174C1F491046236119F0E3
:106BF000DBFB012010BD134C04221C490320E36081
:106C000019F0D2FB012010BD0E4C042218490220BD
:106C1000A36019F0C9FB012010BD044609480422F5
:106C200014494360012019F0BFFB204610BD054CFC
:106C3000042211490020236019F0B6FB012010BD89
